:04000000020049327F
:01000B0032C2
:0100130032BA
:01001B0032B2
:0100230032AA
:01002B0032A2
:01003300329A
:01003B003292
:0300430002061B97
:0300A20002004613
:0300460002035C56
:1000A5004392054393055392EF4393105392BF43F5
:1000B5009340D296C29422C296900005120BEFD2BD
:1000C50096900005120BEFA295E433FF53070190BC
:1000D5000080EFF0EF3395E0A3F07E017F00C3EEE3
:1000E5009408EF94005042D294900005C007C006D2
:1000F500120BEF900080E0FCA3E0FDEC2CFCED334F
:10010500FDA295E4335401FB3395E0FA900080EBB2
:100115004CF0EA4DA3F0C294900005120BEFD00607
:10012500D0070EBE00B80F80B5900080E0FEA3E0BA
:100135008E82F58322E582900095F0900082E0F4AE
:10014500FF900095E0703C900083E0FCA3E0FDA3E8
:10015500E0FEEF035401FBEF03035401FA42038C65
:10016500828D838EF0EB120D1F900086E0FCA3E0DC
:10017500FDA3E0FEEF5401FB8C828D838EF0120D02
:100185001F803A900083E0FCA3E0FDA3E0FEEF545E
:1001950001FBEF03035401FA42038C828D838EF039
:1001A500EB120D1F900086E0FCA3E0FDA3E0FEEF3F
:1001B500035401FB8C828D838EF0120D1F900095E8
:1001C500E0FEBE0263900089E0FBA3E0FCA3E0FD36
:1001D500EF232354018B828C838DF0120D1F900029
:1001E5008CE0FBA3E0FCA3E0FDEFA2E3E4338B820C
:1001F5008C838DF0120D1F90008FE0FBA3E0FCA314
:10020500E0FDEFA2E5E4338B828C838DF0120D1FA8
:10021500900092E0FBA3E0FCA3E0FDEFC454018B4A
:10022500828C838DF0020D1FBE0363900089E0FB75
:10023500A3E0FCA3E0FDEFA2E3E4338B828C838D86
:10024500F0120D1F90008CE0FBA3E0FCA3E0FDEF96
:10025500232354018B828C838DF0120D1F90008F08
:10026500E0FBA3E0FCA3E0FDEFC454018B828C838B
:100275008DF0120D1F900092E0FBA3E0FCA3E0FDC2
:10028500EFA2E5E4338B828C838DF0020D1FEE70B7
:1002950063900089E0FCA3E0FDA3E0FEEFA2E5E4A6
:1002A500338C828D838EF0120D1F90008CE0FCA3A1
:1002B500E0FDA3E0FEEFC454018C828D838EF01225
:1002C5000D1F90008FE0FCA3E0FDA3E0FEEFA2E38D
:1002D500E4338C828D838EF0120D1F900092E0FC2A
:1002E500A3E0FDA3E0FEEF232354018C828D838ED2
:1002F500F0020D1F900089E0FCA3E0FDA3E0FEEFF6
:10030500C454018C828D838EF0120D1F90008CE0F9
:10031500FCA3E0FDA3E0FEEFA2E5E4338C828D8330
:100325008EF0120D1F90008FE0FCA3E0FDA3E0FE10
:10033500EF232354018C828D838EF0120D1F9000C4
:1003450092E0FCA3E0FDA3E0FEEFA2E3E4338C82A0
:100355008D838EF0020D1F120BDD53967F4397C0E0
:1003650053C6DFC2C7D2C575C264C2C11200A5900B
:100375000096E4F0900097F0900099F090009A04B0
:10038500F090009BE4F01200BC900001120C4112A9
:1003950000BCAE82900082EEF090008374C7F074CA
:1003A50000A3F0E4A3F090008674C8F07400A3F0F5
:1003B500E4A3F090008974C9F07400A3F0E4A3F0FD
:1003C50090008C74CAF07400A3F0E4A3F090008F41
:1003D50074CBF07400A3F0E4A3F090009274CCF019
:1003E5007400A3F0E4A3F075820112013A9000C9EC
:1003F500E070129000CAE0700C9000CBE07006909F
:1004050000CCE060499000CAE0600890009A74034F
:10041500F080219000CBE0600790009AE4F0801412
:100425009000CCE0600890009A7401F0800690007E
:100435009A7402F09000B3749AF07400A3F0E4A3E8
:10044500F09000B604F0758200120B5A80189000E7
:10045500AE749AF07400A3F0E4A3F09000B104F038
:10046500758200120B0D900005120C41120AD01274
:1004750000BCAE8290009AE0FD900082EEF0900004
:100485008374C7F07400A3F0E4A3F090008674C8E9
:10049500F07400A3F0E4A3F090008974C9F074002F
:1004A500A3F0E4A3F090008C74CAF07400A3F0E408
:1004B500A3F090008F74CBF07400A3F0E4A3F09048
:1004C500009274CCF07400A3F0E4A3F08D821201C5
:1004D5003A9000C9E070159000CAE0700F9000CB0B
:1004E500E070099000CCE070030205629000C9E05D
:1004F50060089000967402F080139000CAE06008CE
:1005050090009674FEF08005900096E4F09000CB84
:10051500E060089000977402F080139000CCE060D2
:100525000890009774FEF08005900097E4F0900025
:100535009BE0FFBF1400500690009BEF04F0900075
:100545009BE0FFBF1400401A900096E025E025E0EF
:10055500F0900097E025E025E0FFF0800590009BF6
:10056500E4F09000C7E0FFFE9000C8E0FDFCEC2C35
:10057500FC2EFE900098F09000C9E070239000CA10
:10058500E0701D9000CBE070179000CCE07011EF8B
:10059500700EED700B900099E0FFB5060302047430
:1005A5009000C9E0FF3395E0FE9000CAE0FD339569
:1005B500E0FCED2FFFEC3EFE9000CBE0FD3395E037
:1005C500FCED2FFFEC3EFE9000CCE0FD3395E0FC0A
:1005D500ED2FFFEC3E4F7009900096E4F0900097E8
:1005E500F0900098E0FF900096E0FE900097E0FD07
:1005F5009000AAEEF09000ABEDF09000ACE4F08F27
:1006050082C007120A79D007900099EFF090000593
:06061500120C4102047406
:060E0F00000000000000DD
:10061B00C020C0E0C0F0C082C083C007C006C005C8
:10062B00C004C003C002C001C000C0D075D0002000
:10063B00D903020A41743F55D9FFFEBE0003020ADB
:10064B0039BF20030209AFBF21028008BF300280EF
:10065B0015020A3F75D30074FC55D24402F5D278CB
:10066B000E7601020A3F9000A9E5DBF0E0FFBF0820
:10067B0002800302097F900006E0FF90009DF0903E
:10068B000007E07005EF2480500690009D747FF00A
:10069B009000A9E4F0900001E0FF90009CF0900026
:1006AB0000E0FE5460602DBF0103020985BF020309
:1006BB00020985BF0303020985BF0903020985BF30
:1006CB000A03020985BF0B030209859000A974FF79
:1006DB00F0020985EFFE24F55003020977EE240A98
:1006EB0083F582EE240F83F583E473557477B47727
:1006FB003E0C774A688509080908090807090808A4
:10070B0009900003E0FFBF01028013BF02028021AA
:10071B00BF0302802FBF22030207A30207C790006B
:10072B00A7745AF0740DA3F09000A97412F002078D
:10073B00CD9000A7746CF0740DA3F09000A9743BDE
:10074B00F00207CD900002E070129000A774DBF06E
:10075B00740DA3F09000A97404F08066900002E081
:10076B00FFBF01129000A774DFF0740DA3F090008F
:10077B00A97412F0804C900002E0FFBF02129000AF
:10078B00A774F1F0740DA3F09000A9741EF08032E1
:10079B009000A974FFF0802A900004E0701690007E
:1007AB00A774A7F0740DA3F09000A97434F0780D22
:1007BB007601800E9000A974FFF080069000A9745A
:1007CB00FFF090009DE0FF9000A9E0FEC39F500555
:1007DB0090009DEEF090009DE0FFBF080040067D6D
:1007EB00087E0080048F057E009000A9EDF090003C
:1007FB00A7E0FEA3E0FF9000BEEEF0EFA3F0748045
:10080B00A3F09000C1EDF0E4A3F090000075F000B0
:10081B00C005120CABD00590009DE0C39DF090007D
:10082B00A7E0FEA3E0FF9000A7ED2EF0E43FA3F0BE
:10083B00020985900002E0FF90009DF0020985906F
:10084B00009EE0900000F090009DE0FFBF01005083
:10085B00030209859000A97401F00209859000023A
:10086B00E0FF90009EF0020985900000E0FF530727
:10087B001F7E00BF022ABE0027900004E0FFBF01CD
:10088B0002800EBF811174BC55D24402F5D202090D
:10089B008553D2730209859000A974FFF002098574
:1008AB009000A974FFF0020985900000E0541F70BE
:1008BB0037900003E0FE7F00900002E0FD7C0042D9
:1008CB0007EC4206BF0118BE0015900D73E493FFB1
:1008DB0030E5030209859000A974FFF002098590A9
:1008EB0000A974FFF0020985900000E0FF53071F79
:1008FB007E00BF024DBE004A900003E0FE7F0090D9
:10090B000002E0FD7C004207EC4206EF4E702B909C
:10091B000005E0FE7F00900004E0FD7C004207EC48
:10092B004206BF810DBE000A74BF55D24403F5D2F7
:10093B0080489000A974FFF080409000A974FFF0EC
:10094B0080389000A974FFF08030900000E4F090A4
:10095B000001F090009DE0FFBF020040089000A94D
:10096B007402F080159000A9EFF0800E9000A9742E
:10097B00FFF080069000A974FFF09000A9E0FFBF84
:10098B00FF0C90009C74FFF075DCCF020A3FEF2444
:10099B00F740088FDD75DCC0020A3F75DD0075DCA2
:1009AB00C0020A3F90009CE0FFBF05028066BF06B5
:1009BB007590009DE0FFBF080040067D087E00801B
:1009CB00048F057E009000A7E0FEA3E0FF9000BE21
:1009DB00EEF0EFA3F07480A3F09000C1EDF0E4A370
:1009EB00F090000075F000C005120CABD005900024
:1009FB009DE0C39DF09000A7E0FEA3E0FF9000A751
:100A0B00ED2EF0E43FA3F08DDDAEDC7F00630640FE
:100A1B008EDC8020E5E35480FF90009DE0FE4FF5D7
:100A2B00E375DC02800E75DD0075DC02800675DD7A
:100A3B000075DC00C2D930D81275DC0275D2107586
:100A4B00D41275E300C2DAC2D9C2D810DA0375D852
:100A5B00FFD0D0D000D001D002D003D004D005D02D
:100A6B0006D007D083D082D0F0D0E0D02032E58200
:100A7B009000ADF0780E7600E0FF5307079000CEA4
:100A8B00EFF09000AAE09000CFF09000ABE0900068
:100A9B00D0F09000ACE09000D1F09000BE74CEF09E
:100AAB007400A3F0E4A3F09000C17404F0E4A3F08D
:100ABB0090001075F000120CAB75D30453D2FC7878
:100ACB000EE660FB22C2EA75E20075EC0075ED00E4
:100ADB0075EE1075EF0075EA6775DC0275D242751D
:100AEB00D30075E30075D18075E22943D10175D828
:100AFB00FF75E107D2EA780D7600D2AF780DE6608C
:020B0B00FB22CB
:100D5A001201100100000008FECA2300000101026E
:100D6A000001090222000101008032090400000189
:100D7A000301020009211101000122340007058143
:100D8A000304000A00000000000000000000000048
:100D9A00000000000000000000000000000501093A
:100DAA0002A1010901A1000509190129031500255C
:100DBA0001950375018102950175058103050109F4
:100DCA0030093109381581257F750895038106C0D8
:100DDA00C004030904120343007200650073006330
:100DEA000065006E0074001E034E0061006E006F05
:100DFA0000200055005300420020004D006F00758E
:050E0A0000730065000B
:050E15000000000000D8
:100B0D00E5829000B2F07585C0E025E0F0E0FF9041
:100B1D0000AEE0FCA3E0FDA3E0FE9000B1E0FB7AA7
:100B2D0000C3EA9B5026C0038A01E9298F0028F5EE
:100B3D008475868EEA2CF8E43DF98E0388828983CC
:100B4D008BF0E58E120D1F0AD00380D522E5829021
:100B5D0000B7F075A15575A1AA43B10475A1007533
:100B6D0085C09000B7E025E0F0E0FF9000B3E0FC19
:100B7D00A3E0FDA3E0FE9000B6E0FB7A00C3EA9B84
:100B8D005041C0038A01E9298F0028F584EA2CF829
:100B9D00E43DF98E03888289838BF0120D3AF58E30
:100BAD00E586D00330E60375869AA8867900630042
:100BBD0040C3E498748089F063F08095F050012271
:100BCD000A80BA75A15575A1AA53B1FB75A1002272
:100BDD0075A15575A1AA74F855B94406F5B975A155
:100BED000022AF83E5829000B8F0EFA3F09000B83B
:100BFD00E0FEA3E0C313CE13CEFF9000B8EEF0EFEE
:100C0D00A3F09000B8E0FEA3E0FFEE4F601D05A13C
:100C1D0005A105A105A105A105A105A11EBEFF0107
:100C2D001F9000B8EEF0EFA3F080DF9000B8EEF06B
:100C3D00EFA3F022AF83E5829000BAF0EFA3F0901E
:100C4D0000BAE0FEA3E0FFEE4F601D9003E8C00781
:100C5D00C006120BEFD006D0071EBEFF011F90007D
:100C6D00BAEEF0EFA3F080DF9000BAEEF0EFA3F054
:100C7D0022AF83E5829000BCF0EFA3F09000BCE0C2
:100C8D00FEA3E0FF8EC110C10280FB8E828F8322F6
:0E0C9D0010C00280FBAEC17F008E828F8322CA
:06007800E478FFF6D8FD5C
:100CAB00AFF0AE83E5829000C3F0EEA3F0EFA3F0BC
:100CBB009000C3E0F508A3E0F509A3E0F50AAA0844
:100CCB00AB09AC0A9000BEE0F8A3E0F9A3E0FF90FB
:100CDB0000C1E0F50BA3E0F50CAD0BAE0C150B74DE
:100CEB00FFB50B02150CED4E6020888289838FF0C7
:100CFB00120D3AFEA3A882A9838A828B838CF0EE15
:100D0B00120D1FA3AA82AB8380CF8508828509832E
:040D1B00850AF02233
:10005600790BE94400601B7A01900E0F78C775A0F2
:1000660000E493F2A308B8000205A0D9F4DAF27509
:02007600A0FFE9
:100D1F0020F71130F6138883A88220F509F6A883EF
:0B0D2F007583002280FEF280F5F022A8
:10007E007800E84400600A798075A000E4F309D89E
:10008E00FC7847E84400600C7901900080E4F0A30E
:04009E00D8FCD9FAB7
:0D004900758120120D56E58260030200460D
:100D3A0020F71430F6148883A88220F507E6A883E2
:100D4A0075830022E280F7E49322E0227582002272
:00000001FF
