:04000000020049327F
:01000B0032C2
:0100130032BA
:01001B0032B2
:0100230032AA
:01002B0032A2
:01003300329A
:01003B003292
:030043000205C8EB
:0300A20002004613
:0300460002035C56
:1000A5004392054393055392EF4393105392BF43F5
:1000B5009340D296C29422C296900005120BF5D2B7
:1000C50096900005120BF5A295E433FF53070190B6
:1000D5000080EFF0EF3395E0A3F07E017F00C3EEE3
:1000E5009408EF94005042D294900005C007C006D2
:1000F500120BF5900080E0FCA3E0FDEC2CFCED3349
:10010500FDA295E4335401FB3395E0FA900080EBB2
:100115004CF0EA4DA3F0C294900005120BF5D00601
:10012500D0070EBE00B80F80B5900080E0FEA3E0BA
:100135008E82F58322E582900095F0900082E0F4AE
:10014500FF900095E0703C900083E0FCA3E0FDA3E8
:10015500E0FEEF035401FBEF03035401FA42038C65
:10016500828D838EF0EB120D25900086E0FCA3E0D6
:10017500FDA3E0FEEF5401FB8C828D838EF0120D02
:1001850025803A900083E0FCA3E0FDA3E0FEEF5458
:1001950001FBEF03035401FA42038C828D838EF039
:1001A500EB120D25900086E0FCA3E0FDA3E0FEEF39
:1001B500035401FB8C828D838EF0120D25900095E2
:1001C500E0FEBE0263900089E0FBA3E0FCA3E0FD36
:1001D500EF232354018B828C838DF0120D25900023
:1001E5008CE0FBA3E0FCA3E0FDEFA2E3E4338B820C
:1001F5008C838DF0120D2590008FE0FBA3E0FCA30E
:10020500E0FDEFA2E5E4338B828C838DF0120D25A2
:10021500900092E0FBA3E0FCA3E0FDEFC454018B4A
:10022500828C838DF0020D25BE0363900089E0FB6F
:10023500A3E0FCA3E0FDEFA2E3E4338B828C838D86
:10024500F0120D2590008CE0FBA3E0FCA3E0FDEF90
:10025500232354018B828C838DF0120D2590008F02
:10026500E0FBA3E0FCA3E0FDEFC454018B828C838B
:100275008DF0120D25900092E0FBA3E0FCA3E0FDBC
:10028500EFA2E5E4338B828C838DF0020D25EE70B1
:1002950063900089E0FCA3E0FDA3E0FEEFA2E5E4A6
:1002A500338C828D838EF0120D2590008CE0FCA39B
:1002B500E0FDA3E0FEEFC454018C828D838EF01225
:1002C5000D2590008FE0FCA3E0FDA3E0FEEFA2E387
:1002D500E4338C828D838EF0120D25900092E0FC24
:1002E500A3E0FDA3E0FEEF232354018C828D838ED2
:1002F500F0020D25900089E0FCA3E0FDA3E0FEEFF0
:10030500C454018C828D838EF0120D2590008CE0F3
:10031500FCA3E0FDA3E0FEEFA2E5E4338C828D8330
:100325008EF0120D2590008FE0FCA3E0FDA3E0FE0A
:10033500EF232354018C828D838EF0120D259000BE
:1003450092E0FCA3E0FDA3E0FEEFA2E3E4338C82A0
:100355008D838EF0020D25120BE353967F4397C0D4
:1003650053C6DFC2C7D2C575C264C2C11200A5900B
:100375000099E4F090009A04F090009BE4F01200DC
:10038500BC900001120C471200BCAE82900082EEB8
:10039500F090008374CBF07400A3F0E4A3F0900018
:1003A5008674CCF07400A3F0E4A3F090008974CDBA
:1003B500F07400A3F0E4A3F090008C74CEF0740008
:1003C500A3F0E4A3F090008F74CFF07400A3F0E4E1
:1003D500A3F090009274D0F07400A3F0E4A3F0753C
:1003E500820112013A9000CDE070129000CEE070CB
:1003F5000C9000CFE070069000D0E060499000CEF0
:10040500E0600890009A7403F080219000CFE060CE
:100415000790009AE4F080149000D0E06008900006
:100425009A7401F0800690009A7402F09000B774F7
:100435009AF07400A3F0E4A3F09000BA04F075827A
:1004450000120B6080189000B2749AF07400A3F04B
:10045500E4A3F09000B504F0758200120B13900030
:1004650005120C47120A781200BCAE8290009874EF
:10047500035EF090009AE0FF900082EEF09000831A
:1004850074CBF07400A3F0E4A3F090008674CCF074
:100495007400A3F0E4A3F090008974CDF07400A378
:1004A500F0E4A3F090008C74CEF07400A3F0E4A304
:1004B500F090008F74CFF07400A3F0E4A3F09000E7
:1004C5009274D0F07400A3F0E4A3F08F8212013A85
:1004D5009000CDE070159000CEE0700F9000CFE059
:1004E50070099000D0E070030205799000CDE060BE
:1004F500089000967402F080139000CEE06008909A
:10050500009674FEF08005900096E4F09000CFE030
:1005150060089000977402F080139000D0E06008A6
:1005250090009774FEF08005900097E4F090009B92
:10053500E0FFBF0C00500690009BEF04F090009B7D
:10054500E0FFBF0C004013900096E025E025E0F0A9
:10055500900097E025E025E0FFF0900096E0FF9001
:100565000097E09000AEF08F82120AB5900003125A
:100575000C47800590009BE4F0900098E0FF900008
:1005850099E0FEEFB5060302046C900098E4F09044
:1005950000CBE060069000987401F09000CCE0601C
:1005A500069000987402F0900098E0FFF582C0076D
:1005B500120AF3D007900099EFF0900003120C4750
:0305C50002046CC1
:060E1500000000000000D7
:1005C800C020C0E0C0F0C082C083C007C006C0051C
:1005D800C004C003C002C001C000C0D075D0002054
:1005E800D9030209EE743F55D9FFFEBE0003020984
:1005F800E6BF200302095CBF21028008BF300280E9
:10060800150209EC75D30074FC55D24402F5D27872
:100618000E76010209EC9000A9E5DBF0E0FFBF08C7
:1006280002800302092C900006E0FF90009DF090E4
:100638000007E07005EF2480500690009D747FF05D
:100648009000A9E4F0900001E0FF90009CF0900079
:1006580000E0FE5460602DBF0103020932BF0203AF
:10066800020932BF0303020932BF0903020932BF7C
:100678000A03020932BF0B030209329000A974FF72
:10068800F0020932EFFE24F55003020924EE240A91
:1006980083F582EE240F83F583E473022124612419
:1006A800EBB924F7153209080908090706090708EC
:1006B80009900003E0FFBF01028013BF02028021FE
:1006C800BF0302802FBF2203020750020774900065
:1006D800A77460F0740DA3F09000A97412F00207DB
:1006E8007A9000A77472F0740DA3F09000A9743B7F
:1006F800F002077A900002E070129000A774E1F00F
:10070800740DA3F09000A97404F08066900002E0D4
:10071800FFBF01129000A774E5F0740DA3F09000DC
:10072800A97412F0804C900002E0FFBF0212900002
:10073800A774F7F0740DA3F09000A9741EF080322E
:100748009000A974FFF0802A900004E070169000D1
:10075800A774ADF0740DA3F09000A97434F0780D6F
:100768007601800E9000A974FFF080069000A974AD
:10077800FFF090009DE0FF9000A9E0FEC39F5005A8
:1007880090009DEEF090009DE0FFBF080040067DC0
:10079800087E0080048F057E009000A9EDF090008F
:1007A800A7E0FEA3E0FF9000C2EEF0EFA3F0748094
:1007B800A3F09000C5EDF0E4A3F090000075F00000
:1007C800C005120CB1D00590009DE0C39DF09000CB
:1007D800A7E0FEA3E0FF9000A7ED2EF0E43FA3F012
:1007E800020932900002E0FF90009DF00209329069
:1007F800009EE0900000F090009DE0FFBF010050D7
:10080800030209329000A97401F002093290000233
:10081800E0FF90009EF0020932900000E0FF5307CD
:100828001F7E00BF022ABE0027900004E0FFBF0120
:1008380002800EBF811174BC55D24402F5D2020960
:100848003253D2730209329000A974FFF0020932C0
:100858009000A974FFF0020932900000E0541F7064
:1008680037900003E0FE7F00900002E0FD7C00422C
:1008780007EC4206BF0118BE0015900D79E493FFFE
:1008880030E5030209329000A974FFF002093290A2
:1008980000A974FFF0020932900000E0FF53071F1F
:1008A8007E00BF024DBE004A900003E0FE7F00902C
:1008B8000002E0FD7C004207EC4206EF4E702B90F0
:1008C8000005E0FE7F00900004E0FD7C004207EC9C
:1008D8004206BF810DBE000A74BF55D24403F5D24B
:1008E80080489000A974FFF080409000A974FFF040
:1008F80080389000A974FFF08030900000E4F090F8
:100908000001F090009DE0FFBF020040089000A9A0
:100918007402F080159000A9EFF0800E9000A97481
:10092800FFF080069000A974FFF09000A9E0FFBFD7
:10093800FF0C90009C74FFF075DCCF0209ECEF24EB
:10094800F740088FDD75DCC00209EC75DD0075DC49
:10095800C00209EC90009CE0FFBF05028066BF065C
:100968007590009DE0FFBF080040067D087E00806E
:10097800048F057E009000A7E0FEA3E0FF9000C270
:10098800EEF0EFA3F07480A3F09000C5EDF0E4A3BF
:10099800F090000075F000C005120CB1D005900071
:1009A8009DE0C39DF09000A7E0FEA3E0FF9000A7A4
:1009B800ED2EF0E43FA3F08DDDAEDC7F0063064052
:1009C8008EDC8020E5E35480FF90009DE0FE4FF52B
:1009D800E375DC02800E75DD0075DC02800675DDCE
:1009E8000075DC00C2D930D81275DC0275D21075DA
:1009F800D41275E300C2DAC2D9C2D810DA0375D8A6
:100A0800FFD0D0D000D001D002D003D004D005D080
:100A180006D007D083D082D0F0D0E0D02032E58253
:100A28009000ADF0780E7600E09000D2F09000AA29
:100A3800E09000D3F09000ABE09000D4F09000ACD0
:100A4800E09000D5F09000C274D2F07400A3F0E4F6
:100A5800A3F09000C57404F0E4A3F090001075F0C2
:100A680000120CB175D30453D2FC780EE660FB2259
:100A7800C2EA75E20075EC0075ED0075EE1075EFD1
:100A88000075EA6775DC0275D24275D30075E3001C
:100A980075D18075E22943D10175D8FF75E107D278
:100AA800EA780D7600D2AF780DE660FB22E58290F9
:100AB80000AFF0E0FF9000AEE0FE9000AAEFF090EB
:100AC80000ABEEF09000ACE4F0758200020A26E577
:100AD800829000B0F0E0FF9000AAE4F09000ABF044
:100AE8009000ACEFF0758200020A26E5829000B112
:100AF800F0E05407FF9000D1F09000AAE4F09000D5
:0B0B0800ABF09000ACF08F82020A26D8
:100D60001201100100000008FECA23000001010268
:100D70000001090222000101008032090400000183
:100D8000030102000921110100012234000705813D
:100D90000304000A00000000000000000000000042
:100DA0000000000000000000000000000005010934
:100DB00002A1010901A10005091901290315002556
:100DC00001950375018102950175058103050109EE
:100DD00030093109381581257F750895038106C0D2
:100DE000C00403090412034300720065007300632A
:100DF0000065006E0074001E034E0061006E006FFF
:100E000000200055005300420020004D006F007587
:050E1000007300650005
:050E1B000000000000D2
:100B1300E5829000B6F07585C0E025E0F0E0FF9037
:100B230000B2E0FCA3E0FDA3E0FE9000B5E0FB7A99
:100B330000C3EA9B5026C0038A01E9298F0028F5E8
:100B43008475868EEA2CF8E43DF98E0388828983C6
:100B53008BF0E58E120D250AD00380D522E5829015
:100B630000BBF075A15575A1AA43B10475A1007529
:100B730085C09000BBE025E0F0E0FF9000B7E0FC0B
:100B8300A3E0FDA3E0FE9000BAE0FB7A00C3EA9B7A
:100B93005041C0038A01E9298F0028F584EA2CF823
:100BA300E43DF98E03888289838BF0120D40F58E24
:100BB300E586D00330E60375869AA886790063003C
:100BC30040C3E498748089F063F08095F05001226B
:100BD3000A80BA75A15575A1AA53B1FB75A100226C
:100BE30075A15575A1AA74F855B94406F5B975A14F
:100BF3000022AF83E5829000BCF0EFA3F09000BC2D
:100C0300E0FEA3E0C313CE13CEFF9000BCEEF0EFE3
:100C1300A3F09000BCE0FEA3E0FFEE4F601D05A132
:100C230005A105A105A105A105A105A11EBEFF0101
:100C33001F9000BCEEF0EFA3F080DF9000BCEEF05D
:100C4300EFA3F022AF83E5829000BEF0EFA3F09014
:100C530000BEE0FEA3E0FFEE4F601D9003E8C00777
:100C6300C006120BF5D006D0071EBEFF011F900071
:100C7300BEEEF0EFA3F080DF9000BEEEF0EFA3F046
:100C830022AF83E5829000C0F0EFA3F09000C0E0B4
:100C9300FEA3E0FF8EC110C10280FB8E828F8322F0
:0E0CA30010C00280FBAEC17F008E828F8322C4
:06007800E478FFF6D8FD5C
:100CB100AFF0AE83E5829000C7F0EEA3F0EFA3F0B2
:100CC1009000C7E0F508A3E0F509A3E0F50AAA083A
:100CD100AB09AC0A9000C2E0F8A3E0F9A3E0FF90F1
:100CE10000C5E0F50BA3E0F50CAD0BAE0C150B74D4
:100CF100FFB50B02150CED4E6020888289838FF0C1
:100D0100120D40FEA3A882A9838A828B838CF0EE08
:100D1100120D25A3AA82AB8380CF85088285098322
:040D2100850AF0222D
:10005600790BE94400601B7A01900E1578CB75A0E8
:1000660000E493F2A308B8000205A0D9F4DAF27509
:02007600A0FFE9
:100D250020F71130F6138883A88220F509F6A883E9
:0B0D35007583002280FEF280F5F022A2
:10007E007800E84400600A798075A000E4F309D89E
:10008E00FC784BE84400600C7901900080E4F0A30A
:04009E00D8FCD9FAB7
:0D004900758120120D5CE582600302004607
:100D400020F71430F6148883A88220F507E6A883DC
:100D500075830022E280F7E49322E022758200226C
:00000001FF
